S01700006E6F6D656172726570656E746972652E73726563BD
S11300000C94C5040C94400A0C940A0E0C94E2045B
S11300100C94E2040C94E2040C94E2180C94E204B0
S11300200C94E2040C94E2040C94E2040C94E204B4
S11300300C94E2040C94E2040C94E2040C94E204A4
S11300400C94390B0C94E2040C94E2040C94E20436
S11300500C94E2040C94E2040C94E2040C94E20484
S11300600C94E2040C94E2045C055C055F055F05F6
S11300709C056C056F059C05720577057C059C0540
S11300809C057F057F059C059C058A058A059C05C2
S11300908F059A05BB22BB22EA22EF220523BB224D
S11300A0BB22EA22EF224A6976652054616C6B69AF
S11300B06E270000000000000000000000000000A7
S11300C0000000004E69676874204665766572001A
S11300D0000000000000000000000000000000001C
S11300E000005377656574204368696C64204F276A
S11300F04D696E6500000000000000000000000073
S1130100596F752053686F756C6420426520446193
S11301106E63696E67000000000000000000537405
S11301206179696E2720416C6976650000000000E2
S1130130000000000000000000000000486F77206D
S11301404465657020497320596F7572204C6F7631
S113015065000000000000000000456D6272756AD1
S11301606F0000000000000000000000000000001C
S113017000000000000000004F62736573696F6E39
S1130180000000000000000000000000000000006B
S11301900000000000004C656D6F6E2054726565B0
S11301A0000000000000000000000000000000004B
S11301B0000000004275726E696E67204C6F7665B0
S11301C0000000000000000000000000000000002B
S11301D00000537573706963696F7573204D696EA0
S11301E06473200000000000000000000000000014
S11301F049276D205374696C6C205374616E646973
S11302006E67000000000000000000000000446F62
S11302106E277420476F20427265616B696E672098
S11302204D79204865617274000000004D6F72655D
S1130230205468616E204120576F6D616E0000008C
S1130240000000000000000000004966204920432F
S1130250616E2774204861766520596F750000002F
S11302600000000000000000486F772044656570BE
S113027020497320596F7572204C6F766500000019
S113028000000000000053746179696E2720416CFE
S11302906976650000000000000000000000000016
S11302A000000000596F752053686F756C6420421C
S11302B0652044616E63696E670000000000000001
S11302C000005377656574204368696C64204F2788
S11302D04D696E6500000000000000000000000091
S11302E04E696768742046657665720000000000F8
S11302F0000000000000000000000000000053683F
S1130300696E2053656B6169000000000000000005
S11303100000000000000000000000005361696B51
S113032061690000000000000000000000000000FF
S113033000000000000000000000556E69636F7348
S113034000000000000000000000000000000000A9
S11303500000000000000000547573204F6A6F73A2
S11303600000000000000000000000000000000089
S1130370000000000000416D656761204E61204966
S11303807465000000000000000000000000000090
S113039000000000416E696F204E7565766F0000A5
S11303A00000000000000000000000000000000049
S11303B0000048756D616E6F7320436F6D6F20543C
S11303C075000000000000000000000000000000B4
S11303D0547520566F6C76657261730000000000DE
S11303E00000000000000000000000000000536155
S11303F06E204D696775656C000000000000000008
S1130400000000000000000000000000547573208C
S11304104F6A6F730000000000000000000000003D
S1130420000000000000000000004C6F73742049BD
S11304306E20506172616469736500000000000001
S113044000000000000000004261696C61722043FA
S11304506F6E7469676F0000000000000000000008
S11304600000000000004E61696D6F6E6F6E656480
S1130470617269000000000000000000000000003C
S11304800000000050616C6D61720000000000000B
S11304900000000000000000000000000000000058
S11304A0000056616D6F732041204D6F72697200B8
S11304B00000000000000000000000000000000038
S11304C0526564205377616E000000000000000054
S11304D00000000000000000000000000000546163
S11304E072646500000000000000000000000000CD
S11304F000000000000000000000000057696C6468
S11305002053696465000000000000000000000042
S11305100000000000000000000052657370697262
S11305206F00000000000000000000000000000058
S11305300000000000000000556E69636F73000046
S113054000000000000000000000000000000000A7
S11305500000000000004E454F20534B59204E45EB
S11305604F204D415000000000000000000000003A
S1130570000000004177616B656E696E6720507200
S11305806F6D69736500000000000000000000004A
S113059000004B6973656B692048696B6172750073
S11305A00000000000000000000000000000000047
S11305B05354415254203A2044415348000000000F
S11305C000000000000000000000000000004F6B6D
S11305D06F736F75204B6973656B6920776F0000CB
S11305E00000000000000000000000004D6972617E
S11305F069204861726D6F6E790000000000000090
S11306000000000000000000000048616A696D619C
S11306107269207761204B696D69206E6F20536F7A
S113062072610000000000004B61746177617265C3
S1130630646F6B690000000000000000000000000F
S1130640000000000000537061726B6C65000000D4
S11306500000000000000000000000000000000096
S113066000000000446F6D6D6167650000000000CC
S11306700000000000000000000000000000000076
S1130680000049276D20476F6E6E612042650000AF
S11306900000000000000000000000000000000056
S11306A04F6D6F6920796F204869746F747375207A
S11306B06E69204E61726500000000000000576101
S11306C074657220426C7565204E657720576F7291
S11306D06C640000000000000000000053756E739D
S11306E068696E652070696B612070696B61206F49
S11306F06E646F0000000000000048617070792093
S11307006D616B65720000000000000000000000D5
S1130710000000000000000059756D65206761202D
S11307204B6F6B6F206B6172612048616A696D6108
S1130730727520796F00564956494420574F524CE0
S11307404400000000000000000000000000000061
S113075000000000427574746572666C79000000D4
S11307600000000000000000000000000000000085
S11307700000434841534500000000000000000011
S11307800000000000000000000000000000000065
S11307905473756E616761726520436F6E6E656335
S11307A074000000000000000000000000007E2033
S11307B0436F6E6669672E20202020202076007EFD
S11307C02053656C65632E20416C62756D20760044
S11307D053656C65632E204F7063696F6E20205ED5
S11307E0007E2056657264652F526F6A6F20202048
S11307F076007E20417A756C2F526F6A6F2020201C
S11308002076007E204D6F7261646F2F4369616EA4
S1130810202076007E205261696E626F772F526FBE
S11308206A6F2076007E205261696E626F772F4373
S113083069616E2076007E205261696E626F772F47
S1130840526F736120760053656C65632E20436F8D
S11308506C6F722020205E007E2042616A6F20202F
S11308602020202020202076007E20436C617369A4
S1130870636120202020202076007E204A617A7A3D
S113088020202020202020202076007E20526F630C
S11308906B20202020202020202076007E20506FF6
S11308A0702020202020202020202076007E204E32
S11308B06F726D616C20202020202020760053650B
S11308C06C65632E2045712E20202020205E007E42
S11308D0204E656F706978656C202020202076009A
S11308E07E20456375616C697A61646F722020763D
S11308F00053656C65632E206F7063696F6E3A20D8
S11309005E00566F6C756D656E3A202020202020A5
S11309102020007E2053616D2020202020202020D4
S1130920202076007E204A6F7267652020202020D8
S113093020202076007E20446965676F20202020D7
S113094020202020760053656C65632E206361723D
S113095070657461205E007E204D6173202020202C
S1130960202020202020200045717569706F2057B9
S11309706F726B426F742020004269656E76656EFB
S11309806964652020202020200011241FBECFEFA1
S1130990D8E0DEBFCDBF11E0A0E0B1E0E4E5F4E5CE
S11309A002C005900D92A63CB107D9F723E0A6EC4E
S11309B0B1E001C01D92A730B207E1F70E94500ECA
S11309C00C94282A0C940000880F982F990F990FE3
S11309D0782F790F670F71E0760F8FEAFA01818320
S11309E08DB382608DBBE9E6F0E08081886080830E
S11309F0789460E080E00895EFE1FEE43197F1F748
S1130A0000C0000023B1462F30E0062E02C0359509
S1130A1027950A94E2F720FD0FC0789423B130E0C3
S1130A20042E02C0359527950A94E2F720FFF6CFED
S1130A3021E0FC012283608308950F931F93CF93D9
S1130A40DF938C01FC011282D181CDECDC9FC12D9E
S1130A501124C695C695C6959C2F990F892F880F8A
S1130A60880F890FD81B13C083B190E00C2E02C0ED
S1130A70959587950A94E2F780FD08C06C2FC8010C
S1130A800E94FC04F8018281813019F0CF5FCD17F8
S1130A9058F3DF91CF911F910F9108952091D601C2
S1130AA0822F90E0FC01FA97E631F10508F044C08A
S1130AB0EC5CFF4F0C940726209386023DC0E0EDCA
S1130AC0F1E0808590E0982F88272185822B9093F0
S1130AD088028093870230C0209389022DC020931E
S1130AE08A022AC08091D90180938B0225C080910B
S1130AF0D90180938C0220C020938D021DC0809167
S1130B00D50190E0982F8827822B90938F028093B1
S1130B108E0212C08091D901809390020DC0809101
S1130B20D50190E0982F8827822B9093920280938E
S1130B30910202C02093930281E00895E6ECF1E073
S1130B402181828190E0820F911D2381820F911D6A
S1130B502481820F911D2581820F911D2681820F90
S1130B60911D9195819591090895CF93DF93C6ECDA
S1130B70D1E09AE0DE01E92F1D92EA95E9F7E0ED74
S1130B80F1E0DF011D929A95E9F79EE798839FEFC4
S1130B90998396E09A838B836D834E830E949E058E
S1130BA09F8388878FEE89876AE070E0CE010E9478
S1130BB00D24BFEFE1EEF4E0B150E040F040E1F786
S1130BC000C00000DF91CF910895CF93DF93C6EC6E
S1130BD0D1E09AE0DE01E92F1D92EA95E9F7E0ED14
S1130BE0F1E0DF011D929A95E9F79EE798839FEF64
S1130BF0998396E09A838B836D834E830E949E052E
S1130C009F8388878FEE89876AE070E0CE010E9417
S1130C100D248091C0008823E4F76AE070E080ED41
S1130C2091E00E94F123811112C06AE070E080ED2E
S1130C3091E00E94F12381110AC0BFEFE1EEF4E0DC
S1130C40B150E040F040E1F700C000000CC00E9449
S1130C504E052FEF31EE84E0215030408040E1F723
S1130C6000C0000081E0DF91CF91089540E060E092
S1130C7081E00E94B505089540E060E082E00E94B2
S1130C80B505089540E060E084E00E94B50508954C
S1130C9040E060E085E00E94B5050895863008F0E4
S1130CA080E0482F60E087E00E94B505089540E0A9
S1130CB060E08DE00E94B505089540E060E08EE0BC
S1130CC00E94B5050895462F843608F083E6682F00
S1130CD08FE00E94B505089540E060E086E10E943F
S1130CE0B505089540E060E082E40E94E5050895BA
S1130CF040E060E083E40E94E50508958091890264
S1130D00813031F440E060E08BE40E94E505089511
S1130D1040E060E08CE40E94E50508958AE0E0ED9F
S1130D20F1E0DF01982F1D929A95E9F7E6ECF1E0E6
S1130D30DF011D928A95E9F760E875E280E090E0B2
S1130D400E94AC2308950F931F93CF938C010E94AC
S1130D508E062FEF8DE399E4215080409040E1F717
S1130D6000C00000CEE103C00E944806C150C0315B
S1130D70D8F78FE0F801828310820E947206809176
S1130D8094020E944E068EEFF8018683178217861E
S1130D901582CF911F910F9108950F931F93CF93B5
S1130DA08B01811108C060E00E94630681E0F801B4
S1130DB0808317822EC08130B1F460E080E00E940D
S1130DC06306C0E009C00E9436068FE097E20197EF
S1130DD0F1F700C00000CF5FC431A8F381E0F8014F
S1130DE08083878316C060E080E00E946306C0E0D1
S1130DF009C00E943C068FE097E20197F1F700C01A
S1130E000000CF5FC431A8F381E0F801808382E061
S1130E1087830E947E0680919002F801868381E098
S1130E208787CF911F910F910895CF93DF93EC01A2
S1130E308881813021F40E945D06188204C00E94DA
S1130E40570681E0888381E08F87DF91CF910895F1
S1130E50CF93DF93EB01813049F489818E3170F4B3
S1130E600E94420689818F5F898308C08981882313
S1130E7029F00E9448068981815089830E9478065E
S1130E8080918C028A83DF91CF9108951F93CF9331
S1130E90DF93EB018130C1F48F81882321F081300D
S1130EA021F418E203C014E101C01CE30E947E0691
S1130EB080919002181305C0BE018F810E94CD0657
S1130EC028C00E94360625C08F81882321F08130F6
S1130ED021F415E103C010E001C019E20E947E066E
S1130EE080919002181313C01F81123010F41F5FF9
S1130EF001C010E0BE01812F0E94CD060E943C0675
S1130F00112311F0115001C012E01F8302C00E948E
S1130F103C060E947E06809190028E8381E08F873A
S1130F208883DF91CF911F910895CF93DF93EC01D4
S1130F308B81823049F48981813009F059C0BE0126
S1130F408C810E94CD0654C0833019F5898181308B
S1130F5021F4CE010E9415074BC0823029F4BE0152
S1130F6081E00E94280744C0833029F4BE0180E058
S1130F700E9428073DC0853029F4BE0180E00E940C
S1130F80460736C08430A1F5BE0181E00E944607C1
S1130F902FC0843019F58981813021F4CE010E945B
S1130FA0150726C0823029F4BE0181E00E9428077B
S1130FB01FC0833029F4BE0180E00E94280718C0B6
S1130FC0853029F4BE0180E00E94460711C08430B8
S1130FD079F4BE0181E00E9446070AC0863041F4DC
S1130FE08981813029F48C81809394020E944E0679
S1130FF08B81813051F48981813039F48E818E3F27
S113100021F4BE0180E00E94CD06DF91CF910895C6
S1131010CF93DF93FC0195819923D9F1EF019130AE
S113102039F40E946C0618821F828EEF8E8331C0C1
S1131030923021F4CF010E9415072BC0933029F47C
S1131040BF0180E00E94280724C0943029F4BF0126
S113105081E00E9428071DC0953029F4BF0181E07A
S11310600E94460716C0963029F4BF0180E00E9412
S113107046070FC0973069F4809194028F5F809384
S11310809402863010F010929402809194020E948F
S11310904E06DF91CF910895CF93DF93EC010E9428
S11310A0720680918B02811104C0BE0181E00E940E
S11310B04607DF91CF910895CF93DF93EC010E940F
S11310C0A01DCE010E940D26EC010E94CA1ECE0175
S11310D0DF91CF910895CF93DF93009741F0EC0116
S11310E00E94A01DCE010E94A5260E94CA1EDF9167
S11310F0CF9108958FE380937E0080B7877F80BF70
S113110080B7806880BF83B7817F83BF0FB6F894B0
S11311100F9283B7816083BF85B7806685BF8F7D5B
S113112085BF0F900FBE889513BE08951092B90025
S113113080E28093B800089594EA9093BC00909163
S1131140BC009923E4F79091B900987F983091F40A
S11311508093BB0084E88093BC008091BC0088230A
S1131160E4F78091B900887F883131F0803231F41E
S113117082E0089580E0089581E0089583E0089571
S113118094EA9093BC009091BC009923E4F7909169
S1131190B900987F903191F48093BB0084E88093E8
S11311A0BC008091BC008823E4F78091B900887F5B
S11311B0803431F0803231F482E0089580E0089583
S11311C081E0089583E0089584E98093BC008091D0
S11311D0BC0084FDFCCF08958093BB0084E8809319
S11311E0BC008091BC008823E4F78091B900887F1B
S11311F0883221F0803321F481E0089580E008955D
S113120082E0089584EC8093BC008091BC00882324
S1131210E4F78091BB0090E0089584E88093BC00DB
S11312208091BC008823E4F78091BB0090E008958E
S1131230ECEBF0E0108294EA90839091BC00992347
S1131240E4F79091B900987F983011F09031B1F49F
S113125090E0880F991F862B8093BB0084E88093CD
S1131260BC008091BC008823E4F78091B900887F9A
S1131270883131F0803431F480E008958AE00895B3
S113128080E0089584E10895CF93C62F60E00E9422
S11312901809811108C08C2F0E94EC08811103C029
S11312A00E94E40880E0CF91089590E00AC0E091A4
S11312B0FE01F091FF01E90FF11D2081281739F09B
S11312C09F5F20910002921790F380E0089581E0DF
S11312D00895CF93DF93CDB7DEB728970FB6F89470
S11312E0DEBF0FBECDBF9A8389837C836B83019657
S11312F09E838D836F5F7F4F78876F8330E045C017
S1131300832F90E0FC01EE0FFF1FEE0FFF1FEE0F87
S1131310FF1FE20FF11DE252FE4F40814423B9F05A
S1131320880F991FE1E0F0E0EC0FFD1FE80FF91FB3
S11313300190F081E02D81E090E0022E02C0880F40
S1131340991F0A94E2F79081892B808317C0880F34
S1131350991FE1E0F0E0EC0FFD1FE80FF91F019089
S1131360F081E02D81E090E0022E02C0880F991FE9
S11313700A94E2F780959081892380832F5F01C0CE
S113138020E0283008F4BCCF3F5F3430C8F32896FF
S11313900FB6F894DEBF0FBECDBFDF91CF91089595
S11313A0AB01BC0185B5856085BDE9E6F0E08081CF
S11313B0816080838DB381608DBB80E006C0E82F9F
S11313C0F0E0E252FE4F10828F5F8032C0F3443867
S11313D051056105710520F484E0809301020895AC
S11313E0CB01BA010E9437252FE632E143E052E4F3
S11313F00E94962420E030E040E85FE30E942A2423
S11314000E940825609301020895CF93DF9300D0D2
S113141000D0CDB7DEB780910601882321F081305A
S113142039F180E026C0BE016D5F7F4FCE01019689
S11314300E94690999818B8189278F3F29F48A81C8
S11314402C8128272F3F29F082E08093060180E039
S113145010C0E5E9F2E0908381830E945509882356
S113146011F082E001C081E08093060181E001C0B7
S113147081E00F900F900F900F90DF91CF9108951E
S11314801F920F920FB60F9211244F935F936F9395
S11314907F938F939F93EF93FF9346B580E8489F84
S11314A0A0011124052E000C660B770B89B1847002
S11314B090E095958795959587959091DC0192306C
S11314C0B1F128F4992351F09130D1F0C4C0933094
S11314D009F45DC0943009F4A3C0BDC081110CC0EF
S11314E081E08093DC0185B3816085BBEEE6F0E0AA
S11314F0808181608083AFC082E080930601ABC0AD
S1131500882379F04A3F99E159076105710548F04C
S11315104F3350436105710520F482E08093DC0170
S11315209AC082E0809306011092DC0194C081117C
S113153014C04E349CE059076105710570F04B3DB1
S113154096E159076105710540F483E08093DC015D
S11315501092DA011092DD017EC0811112C047326F
S113156086E058076105710560F04E365B40610501
S1131570710538F484E08093DC0181E08093DA0122
S11315806AC082E0809306011092DC0164C081117C
S11315901FC04A3791E0590761057105C8F04F3BF8
S11315A092E059076105710598F4E091DD0181E04D
S11315B08E0F8093DD01F0E0E252FE4F10828091A5
S11315C0DD01803208F447C084E08093DC0143C02D
S11315D081111EC04D3994E0590761057105C0F0B1
S11315E0433958406105710598F4E091DD0181E0CB
S11315F08E0F8093DD01F0E0E252FE4F81E08083A4
S11316008091DD01803238F184E08093DC0123C0D5
S1131610811121C082E0809306011092DC011BC07D
S11316208823A1F04A3781E058076105710570F0FD
S11316304F3B52406105710548F48091DA018111F4
S113164002C0109206011092DB0103C082E0809375
S113165006011092DC0116BCFF91EF919F918F91CE
S11316607F916F915F914F910F900FBE0F901F90DC
S113167018951F920F920FB60F9211248F939F9378
S1131680EF93FF938091DB018F5F8093DB01909157
S1131690DB0180910102981760F0EEE6F0E08081B2
S11316A08160808382E0809306011092DC011092B5
S11316B0DB01FF91EF919F918F910F900FBE0F90DF
S11316C01F901895FC0187B1816087B9A8B1AE7FDE
S11316D058B15160BFB7F89410C09F012F5F3F4FBE
S11316E0408168E058B947FFA8B9440F000007F4E7
S11316F0A8B96A95B9F7BC01F901CB010197672B29
S113170061F7BFBF0895CF93DF93EC01DB01403154
S113171008F04FE020E1241B30E015C0CF01880F12
S1131720991FE80FF91FEC0FFD1F8281622F0E94A1
S1131730C525828380810E94C525808381810E9482
S1131740C52581833F5FE32FF0E0EA17FB0730F301
S1131750DF91CF910895FC012381622B80810E9447
S11317604409089528E0FC01238360E00E94AB0B48
S113177008950F931F93CF938C01C62F64600E942A
S1131780AB0B85E08A95F1F700006C2F6B7FC801E5
S11317900E94AB0B85E88A95F1F70000CF911F9169
S11317A00F9108951F93CF93DF93EC01162F0E949E
S11317B0AB0B612FCE010E94B90BDF91CF911F912A
S11317C00895FF920F931F93CF93DF938C01F42E10
S11317D0862F807F90E1699FE0011124682F642B9C
S11317E0C8010E94D20B6C2F6F29C8010E94D20B32
S11317F0DF91CF911F910F91FF9008950F931F9345
S1131800CF93DF938C01EB01688106C041E0C801EE
S11318100E94E10B219668816111F8CFDF91CF918D
S11318201F910F91089540E00E94E10B0895CF931A
S1131830DF9300D000D0CDB7DEB7198220E42A832D
S113184024E12B8324E52C83E1E0F0E0EC0FFD1F81
S1131850E60FF11D6081640F60680E94130C0F9005
S11318600F900F900F90DF91CF910895CF93DF9356
S1131870EC0161E00E94130C8FE99FE00197F1F7FE
S113188000C0000040E060E0CE010E94170CDF9130
S1131890CF91089562E00E94130C8FE99FE00197B5
S11318A0F1F700C000000895FC016581262F246033
S11318B025836C600E94130C0895CF93DF93CDB7FA
S11318C0DEB72E970FB6F894DEBF0FBECDBF888764
S11318D069874A871B862C8784E08D8782E08E8700
S11318E0423018F0822F88608C87222329F04130FF
S11318F019F48C8584608C872FEF80E792E0215067
S113190080409040E1F700C0000060E0CE010896FE
S11319100E94AB0B2FEF89E698E121508040904064
S1131920E1F700C0000060E3CE0108960E94AB0B13
S113193087E293E20197F1F700C0000060E3CE0173
S113194008960E94D20B87E293E20197F1F700C058
S1131950000060E3CE0108960E94D20B8BE291E076
S11319600197F1F700C0000060E2CE0108960E94E2
S1131970D20B6C856062CE0108960E94130CCE01D6
S113198008960E94540CCE0108960E94360C6E856F
S11319906460CE0108960E94130CCE0108960E9442
S11319A04A0C87E0FE013896DE01119601900D92F3
S11319B08A95E1F729813A814B815C816D817E8131
S11319C08F8190E02E960FB6F894DEBF0FBECDBF88
S11319D0DF91CF910895FC010396928381832FEFC9
S11319E03FEF348323839683858390878783108294
S11319F00895FC01118610860895CF93DF93EB01BF
S1131A00488159814F3F2FEF520721F4FC01A781F0
S1131A10B0850DC0DC01139601C0DF011296ED9173
S1131A20FC9113972081318142175307B0F7129626
S1131A30ED91FC911397FB83EA83D583C483BD8323
S1131A40AC831396DC93CE93129799878887FC0115
S1131A5020812F5F2083DF91CF910895CF93DF936F
S1131A60FC01A085B185C281D381848195819D8348
S1131A708C83C481D581828193819B838A831196CF
S1131A808D919C911297E817F90731F4848195811F
S1131A9012969C938E931197118610868C91815087
S1131AA08C938C91DF91CF91089582E00E948A23D8
S1131AB0809102028F5F80930202863068F081E099
S1131AC08093AB021092020287E992E00E94B90E61
S1131AD087E992E00E946C1783E490E00E949F1FC4
S1131AE0E4CF84E00E948A2387E992E00E94E41A0A
S1131AF083E490E00E949F1FF4CF83E00E948A2336
S1131B0087E992E00E94071487E992E00E94531348
S1131B1081E290E00E949F1FF0CF809102028F5FCC
S1131B208093020298B182E0892788B981E00E94FB
S1131B308A2387E992E00E944C088091A6028130B2
S1131B4099F487E992E00E9407148FEF0E948A2398
S1131B50C7E9D2E08E810E948A238B810E948A2366
S1131B608C810E948A231F8683E490E00E949F1F39
S1131B70D4CFCF93DF93EC0187B1816087B9F89418
S1131B800E94050A7894882369F18091960285342D
S1131B9019F481E08D831FC0843419F482E08D83AD
S1131BA01AC0893019F483E08D8315C0853119F486
S1131BB084E08D8310C0803419F485E08D830BC0DC
S1131BC0833419F486E08D8306C0873011F48D8345
S1131BD002C08FEA8D838FE295E70197F1F700C089
S1131BE0000001C01D82DF91CF91089585E00E941D
S1131BF08A2387E992E00E94B90D80919C02882390
S1131C0021F087E992E00E9408088FE090E00E94AA
S1131C109F1FECCF1F920F920FB60F9211240F93B8
S1131C201F932F933F934F935F936F937F938F9360
S1131C309F93AF93BF93CF93DF93EF93FF9389EA7F
S1131C4092E00E941D05F894C9EAD2E01A828881C4
S1131C5007E912E0F8018183C8010E949507C801D1
S1131C600E946C17C8010E94B90E8FEA8883F8019C
S1131C70818310920202FF91EF91DF91CF91BF9186
S1131C80AF919F918F917F916F915F914F913F9110
S1131C902F911F910F910F900FBE0F901F901895C9
S1131CA060E070E0CB010E94D009789447E952E0EB
S1131CB065E080E00E94E4046093A9027093AA02A4
S1131CC08093AB0280E10E94421787E992E00E9470
S1131CD00C1B87E992E00E94A30687E992E00E9428
S1131CE087150E9483238FE40E948A2387B18E6024
S1131CF087B90F2EF7EAEF2EF2E0FF2EF02D02E067
S1131D0020E030E044E650E06BE671E08DE89DE0D1
S1131D100E94221DE12CF12C20E030E045E550E04A
S1131D2062E771E085E59DE00E94221D01E020E06C
S1131D3030E046E950E068E771E08DE79DE00E94FD
S1131D40221D00E020E030E045E550E06CE771E062
S1131D5081E79DE00E94221D20E030E045E550E04F
S1131D6060E871E086EF9DE00E94221D0E94701DD4
S1131D70FFCFFC018091AC028230B1F581818130CA
S1131D8041F4ACEAB2E083E08C9311968C918783A2
S1131D902FC1823071F4ACEAB2E011968C911197A4
S1131DA08F5F11968C93833008F422C11092AD0298
S1131DB01FC1833079F4ACEAB2E011968C9111978B
S1131DC0815011968C938F3F09F012C182E0809369
S1131DD0AD020EC1843009F00BC1ACEAB2E088E078
S1131DE08C9311961C9204C1833049F481818250F2
S1131DF0823008F0FDC084E08093AC02F9C08430E6
S1131E0059F481818F3A21F483E08093AC02F0C0CD
S1131E1083E08093AC02ECC0853009F040C081813E
S1131E20813091F48091AD02811107C0ACEAB2E037
S1131E3086E08C9311961C92DBC0ACEAB2E087E09A
S1131E408C9311961C92D4C0823071F4ACEAB2E047
S1131E5011968C9111978F5F11968C93823008F4B0
S1131E60C7C01092AD02C4C0833079F4ACEAB2E0CA
S1131E7011968C911197815011968C938F3F09F094
S1131E80B7C081E08093AD02B3C0843009F0B0C024
S1131E90ACEAB2E088E08C9311961C92A9C086301B
S1131EA0A9F58181813039F4ACEAB2E085E08C9304
S1131EB011961C929DC0823071F4ACEAB2E0119686
S1131EC08C9111978F5F11968C93863008F490C093
S1131ED01092AD028DC0833079F4ACEAB2E0119671
S1131EE08C911197815011968C938F3F09F080C08B
S1131EF085E08093AD027CC0843009F079C0ACEAFF
S1131F00B2E085E08C9311961C9272C08730A9F5DB
S1131F108181813039F4ACEAB2E085E08C9311968A
S1131F201C9266C0823071F4ACEAB2E011968C91D6
S1131F3011978F5F11968C93863008F459C01092D4
S1131F40AD0256C0833079F4ACEAB2E011968C91BC
S1131F501197815011968C938F3F09F049C085E009
S1131F608093AD0245C0843009F042C0ACEAB2E0CF
S1131F7085E08C9311961C923BC08830C9F5818111
S1131F80813091F48091AD02811107C0ACEAB2E0D6
S1131F9082E08C9311961C922BC0ACEAB2E085E0EF
S1131FA08C9311961C9224C0823069F4ACEAB2E09E
S1131FB011968C9111978F5F11968C938230C0F09B
S1131FC01092AD0215C0833071F4ACEAB2E0119600
S1131FD08C911197815011968C938F3F49F481E035
S1131FE08093AD0205C0843019F481E08093AC0283
S1131FF08091AC02813099F48181811106C0ACEAF0
S1132000B2E088E08C9311961C928181813069F44E
S1132010ACEAB2E083E08C9311961C9206C08181F5
S1132020811103C081E08093AC02ACEAB2E08C91F0
S1132030838311968C91848308950F931F93CF9378
S1132040DF938C01EB018FEA92E00E94360C40E0B2
S113205060E08FEA92E00E94170CB8018FEA92E0E8
S11320600E94FE0B40E061E08FEA92E00E94170CB0
S1132070BE018FEA92E00E94FE0BDF91CF911F9187
S11320800F910895CF93DF93CDB7DEB7A2970FB624
S1132090F894DEBF0FBECDBF8091AC02823009F050
S11320A076C08091AD028823D9F025C0822F90E0BC
S11320B0FC01EA5BF64FE491A1E0B0E0AC0FBD1F78
S11320C0A80FB91FEC93FC01ED5EF64FE491A2E179
S11320D0B0E0AC0FBD1FA80FB91FEC932F5F01C078
S11320E020E0213118F3BE016E5E7F4FCE010196D0
S11320F00E941D10CFC28130E1F020E03EC0822F4B
S113210090E0FC01EA5BF64FE491A1E0B0E0AC0F93
S1132110BD1FA80FB91FEC93FC01EB5CF64FE491D3
S1132120A2E1B0E0AC0FBD1FA80FB91FEC932F5F65
S113213001C020E0213118F3BE016E5E7F4FCE0155
S113214001960E941D10A6C2822F90E0FC01EA5B5A
S1132150F64FE491A1E0B0E0AC0FBD1FA80FB91F8A
S1132160EC93FC01EC5DF64FE491A2E1B0E0AC0F1E
S1132170BD1FA80FB91FEC932F5F213128F3BE01B7
S11321806E5E7F4FCE0101960E941D1083C2853082
S113219009F04EC08091AD028823E1F020E03EC0FA
S11321A0822F90E0FC01EF50F74FE491A1E0B0E002
S11321B0AC0FBD1FA80FB91FEC93FC01E052F74F01
S11321C0E491A2E1B0E0AC0FBD1FA80FB91FEC93DE
S11321D02F5F01C020E0213118F3BE016E5E7F4FF6
S11321E0CE0101960E941D1055C2822F90E0FC0181
S11321F0EF50F74FE491A1E0B0E0AC0FBD1FA80F82
S1132200B91FEC93FC01E153F74FE491A2E1B0E074
S1132210AC0FBD1FA80FB91FEC932F5F213128F31A
S1132220BE016E5E7F4FCE0101960E941D1032C228
S1132230863009F0EEC08091AD028823D9F025C024
S1132240822F90E0FC01E254F74FE491A1E0B0E06A
S1132250AC0FBD1FA80FB91FEC93FC01E355F74F5A
S1132260E491A2E1B0E0AC0FBD1FA80FB91FEC933D
S11322702F5F01C020E0213118F3BE016E5E7F4F55
S1132280CE0101960E941D1005C2813031F51AC09D
S1132290822F90E0FC01E254F74FE491A1E0B0E01A
S11322A0AC0FBD1FA80FB91FEC93FC01E456F74F08
S11322B0E491A2E1B0E0AC0FBD1FA80FB91FEC93ED
S11322C02F5F01C020E0213118F3BE016E5E7F4F05
S11322D0CE0101960E941D10DDC1823031F51AC075
S11322E0822F90E0FC01E254F74FE491A1E0B0E0CA
S11322F0AC0FBD1FA80FB91FEC93FC01E557F74FB6
S1132300E491A2E1B0E0AC0FBD1FA80FB91FEC939C
S11323102F5F01C020E0213118F3BE016E5E7F4FB4
S1132320CE0101960E941D10B5C1833031F51AC04B
S1132330822F90E0FC01E254F74FE491A1E0B0E079
S1132340AC0FBD1FA80FB91FEC93FC01E658F74F63
S1132350E491A2E1B0E0AC0FBD1FA80FB91FEC934C
S11323602F5F01C020E0213118F3BE016E5E7F4F64
S1132370CE0101960E941D108DC18430E1F020E051
S11323803EC0822F90E0FC01E254F74FE491A1E0BB
S1132390B0E0AC0FBD1FA80FB91FEC93FC01E759C7
S11323A0F74FE491A2E1B0E0AC0FBD1FA80FB91F35
S11323B0EC932F5F01C020E0213118F3BE016E5E63
S11323C07F4FCE0101960E941D1064C1822F90E0C0
S11323D0FC01E254F74FE491A1E0B0E0AC0FBD1F63
S11323E0A80FB91FEC93FC01E85AF74FE491A2E15E
S11323F0B0E0AC0FBD1FA80FB91FEC932F5F2131C4
S113240028F3BE016E5E7F4FCE0101960E941D101F
S113241041C1873009F0EEC08091AD028823D9F024
S113242025C0822F90E0FC01E95BF74FE491A1E025
S1132430B0E0AC0FBD1FA80FB91FEC93FC01EA5C20
S1132440F74FE491A2E1B0E0AC0FBD1FA80FB91F94
S1132450EC932F5F01C020E0213118F3BE016E5EC2
S11324607F4FCE0101960E941D1014C1813031F5B9
S11324701AC0822F90E0FC01E95BF74FE491A1E0E0
S1132480B0E0AC0FBD1FA80FB91FEC93FC01EB5DCE
S1132490F74FE491A2E1B0E0AC0FBD1FA80FB91F44
S11324A0EC932F5F01C020E0213118F3BE016E5E72
S11324B07F4FCE0101960E941D10ECC0823031F591
S11324C01AC0822F90E0FC01E95BF74FE491A1E090
S11324D0B0E0AC0FBD1FA80FB91FEC93FC01EC5E7C
S11324E0F74FE491A2E1B0E0AC0FBD1FA80FB91FF4
S11324F0EC932F5F01C020E0213118F3BE016E5E22
S11325007F4FCE0101960E941D10C4C0833031F567
S11325101AC0822F90E0FC01E95BF74FE491A1E03F
S1132520B0E0AC0FBD1FA80FB91FEC93FC01ED5F29
S1132530F74FE491A2E1B0E0AC0FBD1FA80FB91FA3
S1132540EC932F5F01C020E0213118F3BE016E5ED1
S11325507F4FCE0101960E941D109CC08430E1F093
S113256020E03EC0822F90E0FC01E95BF74FE4914C
S1132570A1E0B0E0AC0FBD1FA80FB91FEC93FC01A4
S1132580EE50F84FE491A2E1B0E0AC0FBD1FA80FEC
S1132590B91FEC932F5F01C020E0213118F3BE0175
S11325A06E5E7F4FCE0101960E941D1073C0822F74
S11325B090E0FC01E95BF74FE491A1E0B0E0AC0FDF
S11325C0BD1FA80FB91FEC93FC01EF51F84FE49124
S11325D0A2E1B0E0AC0FBD1FA80FB91FEC932F5FB1
S11325E0213128F3BE016E5E7F4FCE0101960E9419
S11325F01D1050C0883009F04DC08091AD02882371
S1132600E1F020E03EC0822F90E0FC01E053F84F5F
S1132610E491A1E0B0E0AC0FBD1FA80FB91FEC938B
S1132620FC01E154F84FE491A2E1B0E0AC0FBD1F0E
S1132630A80FB91FEC932F5F01C020E0213118F3DC
S1132640BE016E5E7F4FCE0101960E941D1022C016
S1132650822F90E0FC01E053F84FE491A1E0B0E058
S1132660AC0FBD1FA80FB91FEC93FC01E255F84F46
S1132670E491A2E1B0E0AC0FBD1FA80FB91FEC9329
S11326802F5F213128F3BE016E5E7F4FCE0101968C
S11326900E941D10A2960FB6F894DEBF0FBECDBFE8
S11326A0DF91CF9108950F931F93CF93DF93CDB70D
S11326B0DEB761970FB6F894DEBF0FBECDBF809131
S11326C0AC02833009F098C00EC0E82FF0E0E85E59
S11326D0FE4F2081211104C09F5F923011F408C085
S11326E090E08F5F02C080E090E08E3170F38EE165
S11326F0823108F475C0ECEAF2E072817F5F728384
S113270091E1E9E5F1E0DE01119601900D929A95CF
S1132710E1F760E090E00DC0F901E85EFE4F208132
S1132720E1E0F0E0EC0FFD1FE40FF51F2083692FBB
S11327309F5F913150F4492F50E09A01270F311DCA
S1132740E82FF0E02E173F073CF3A72FB0E0082F47
S113275010E0980121513109A217B30754F40BC0BA
S1132760E1E0F0E0EC0FFD1FE60FF11D90E2908335
S11327706F5F6131A8F38717F0F4871B805F90E0E7
S11327800CC0F901E85EFE4F2081E1E0F0E0EC0FBF
S1132790FD1FE40FF51F20839F5F292F30E0AD015B
S11327A0405151092417350734F4A901480F511D2C
S11327B04131510534F3005F1F4F0A171B0714F40E
S11327C01092AE0240E061E08FEA92E00E94170CA2
S11327D0BE016F5F7F4F8FEA92E00E94FE0B0CC038
S11327E040E061E08FEA92E00E94170C68E171E03A
S11327F08FEA92E00E94FE0B61960FB6F894DEBF5A
S11328000FBECDBFDF91CF911F910F9108950F930C
S11328101F93CF93DF93CDB7DEB7A2970FB6F8948B
S1132820DEBF0FBECDBF8C018091AC02813009F0B8
S113283051C0F801468535852485918580851F9290
S11328404F931F923F931F922F931F929F938F71C9
S11328501F928F9383E891E09F938F9387E491E095
S11328609F938F930E943E27F80183850FB6F894B7
S1132870DEBF0FBECDBF813079F48285882321F07D
S113288081E480934D0103C080E580934D018DE484
S113289080934E0120E014C0E7E4F1E080E28683F7
S11328A08783F8CF822F90E0FC01E95AF64FE49138
S11328B0A2E1B0E0AC0FBD1FA80FB91FEC932F5FCE
S11328C0213180F3BE016E5E7F4F87E491E00E9468
S11328D01D1012C1823019F40E9442100DC18330C0
S11328E009F0C8C0F801918580851F929F938F716C
S11328F01F928F938EE991E09F938F9386E391E0EB
S11329009F938F930E943E27F80183850FB6F89416
S1132910DEBF0FBECDBF813071F48285882321F0E4
S113292081E480933C0103C080E580933C018DE405
S113293080933D0105C0E6E3F1E080E2868387836E
S1132940F801878181110CC0E6E3F1E080E283871E
S1132950848783E5858781E686878DE687871BC024
S1132960813069F4E6E3F1E084E4838789E68487CF
S113297085E6858787E686878FE687870CC0E6E34A
S1132980F1E08AE483878FE6848782E7858787E698
S1132990868785E68787F80187818823A1F017C099
S11329A0F8013681822F90E0FC014EE1349FE00D66
S11329B0F11D1124EA55FF4FE491DC01A85EBE4FDE
S11329C0EC932F5F01C020E02E3150F331C08130F1
S11329D0C1F4F8013681345120E010C0822F90E018
S11329E0FC014EE1349FE00DF11D1124EA5AFA4F27
S11329F0E491DC01A85EBE4FEC932F5F2E3170F39F
S1132A0017C0F8013681385220E010C0822F90E0C0
S1132A10FC014EE1349FE00DF11D1124E250FD4F05
S1132A20E491DC01A85EBE4FEC932F5F2E3170F36E
S1132A30F8018785813019F48FEF8093AE0280917D
S1132A40AD02811107C068E171E086E391E00E9464
S1132A501D1052C0813039F468E171E086E391E0E1
S1132A600E941D1049C068E171E086E391E00E9474
S1132A701D1042C0843069F5F80182811F928F9342
S1132A8083EB91E09F938F9387E091E09F938F93E3
S1132A900E943E270F900F900F900F900F900F9071
S1132AA020E00EC0822F90E0FC01EE5FF64FE4912F
S1132AB0A1E0B0E0AC0FBD1FA80FB91FEC932F5FCE
S1132AC0213180F367E071E0CE0101960E941D1070
S1132AD013C0853019F40E9442100EC0863019F4D8
S1132AE00E94421009C0873019F40E94421004C0A9
S1132AF0883011F40E944210A2960FB6F894DEBFFB
S1132B000FBECDBFDF91CF911F910F910895EF922A
S1132B10FF920F931F93CF93DF93CDB7DEB7A297A6
S1132B200FB6F894DEBF0FBECDBF8C01ECEAF2E025
S1132B30108212820F2EFFEAEF2EF2E0FF2EF02D0C
S1132B4028E042E060E187E20E945D0CF701208307
S1132B50318342835383648375838683C7010E94D0
S1132B60360CC7010E94B20B20E019C0822F90E0FE
S1132B70FC01E758F64FE491A1E0B0E0AC0FBD1FB3
S1132B80A80FB91FEC93FC01E859F64FE491A2E1B8
S1132B90B0E0AC0FBD1FA80FB91FEC932F5F21311C
S1132BA028F3BE016E5E7F4FCE0101960E941D1078
S1132BB0FFEF29E688E1F15020408040E1F700C0B2
S1132BC00000ECEAF2E081E080831182F801838363
S1132BD01482C8010E940714A2960FB6F894DEBFAF
S1132BE00FBECDBFDF91CF911F910F91FF90EF905A
S1132BF00895CF93DF93E9EEF2E02389C6EBD2E0A8
S1132C002A839289998384898B832D839C838E83E1
S1132C102689288795899F83878989872B879A871F
S1132C208C8727812E8796819D8780858F87298B26
S1132C30988B8A8B24812C8B93819B8B85818D8BA4
S1132C402F8B9E8B888F25852A8F9485998F8685D7
S1132C508B8F2D8F9C8F8E8F218128A390819F8FA6
S1132C60828189A32BA39AA38CA322852EA3918569
S1132C709DA383858FA329A798A78AA720892CA71A
S1132C8097859BA781898DA72FA79EA788AB68816D
S1132C9070E049A987EB92E00E94830B688170E0A1
S1132CA0CB01880F991F680F791F87EB92E00E9470
S1132CB0620BDF91CF910895CF93DF93DB0190E016
S1132CC015C0F901EE0FFF1FE20FF31FEA54FD4F89
S1132CD0128211822F5F3F4FF901EE0FFF1F2E0F5B
S1132CE03F1FF901EA54FD4F10829F5F292F30E006
S1132CF0682F70E0AB01440F551F440F551F241774
S1132D003507FCF2982F990F990F3DC09031F8F0D8
S1132D1020EF290F30E011964C911197F901EE0F35
S1132D20FF1FE20FF31FEA54FD4F42834C9141838E
S1132D3012964C9112972F5F3F4FF901EE0FFF1F30
S1132D402E0F3F1FF901EA54FD4F40831BC011961B
S1132D504C911197F901EE0FFF1FE20FF31FEA5494
S1132D60FD4F42834C91418312964C9112972F5FF1
S1132D703F4FF901EE0FFF1F2E0F3F1FF901EA54D9
S1132D80FD4F40839F5F292F30E0AB014E5F5F4FC3
S1132D90FA01EE0FFF1FEE0FFF1F2E173F070CF473
S1132DA0B5CF8230D8F4440F440F16C0842F90E07E
S1132DB0FC01EE0FFF1FE80FF91FEA54FD4F1282CA
S1132DC011820196FC01EE0FFF1F8E0F9F1FFC0165
S1132DD0EA54FD4F10824F5F403140F3C6EBD2E01E
S1132DE0688170E049A987EB92E00E94830B6881B7
S1132DF070E0CB01880F991F680F791F87EB92E071
S1132E000E94620BDF91CF910895CF93DF93DC0191
S1132E1090E01EC0292F30E011968C911197F90192
S1132E20EE0FFF1FE20FF31FEA54FD4F82838C91D4
S1132E30818312968C9112972F5F3F4FF901EE0F09
S1132E40FF1F2E0F3F1FF901EA54FD4F80839F5F40
S1132E506091B6029617F0F2C6EBD2E070E049A991
S1132E6087EB92E00E94830B688170E0CB01880FAE
S1132E70991F680F791F87EB92E00E94620BDF9124
S1132E80CF910895E9EEF2E0118210823FEF328390
S1132E9014823383158290E897839683108640E4E6
S1132EA0428711869387158620EC24879687208B8A
S1132EB050E25787918B338B128A148A268B458B69
S1132EC0178AE6EBF2E0808387E081AB12AA89EEF1
S1132ED092E00E9405170895CF93DF93EC018B8154
S1132EE0873031F48981813019F48C818093E80230
S1132EF088818130E1F48091E802833018F40E94E3
S1132F00F9153BC0833029F482EF92E00E94051743
S1132F1034C0843029F489EE92E00E9405172DC054
S1132F20853059F58CEE92E00E94051726C0811178
S1132F3024C09091E80221E0943008F420E081E07C
S1132F40923009F080E0822B29F08BEF92E00E940E
S1132F50051713C021E0933009F020E081E091309F
S1132F6009F080E0822B29F085EF92E00E9405179A
S1132F7004C088EF92E00E9405178981823031F401
S1132F8062EF72E083E00E945C1617C0833031F474
S1132F9065EF72E081E00E945C160FC0843031F46A
S1132FA06CEE72E080E00E945C1607C0853029F464
S1132FB06FEE72E082E00E945C16DF91CF9108957B
S1132FC0A89590EC88E10FB6F894A89580936000DA
S1132FD00FBE909360000895FC0160833197708365
S1132FE031971082319720E82083319710827797A8
S1132FF0408331975083839708950E94E017A091EE
S11330006802B0916902CD91CDBFDD91DEBFFF9121
S1133010EF91DF91CF91BF91AF919F918F917F916C
S11330206F915F914F913F912F911F910F91FF905D
S1133030EF90DF90CF90BF90AF909F908F907F9054
S11330406F905F904F903F902F901F900F900FBE06
S11330500F90089581E008950F920FB6F8940F929F
S11330601F9211242F923F924F925F926F927F9200
S11330708F929F92AF92BF92CF92DF92EF92FF9284
S11330800F931F932F933F934F935F936F937F936C
S11330908F939F93AF93BF93CF93DF93EF93FF935C
S11330A0A0916802B09169020DB60D920EB60D9210
S11330B00E94B51FA0916802B0916902CD91CDBF65
S11330C0DD91DEBFFF91EF91DF91CF91BF91AF9181
S11330D09F918F917F916F915F914F913F912F912C
S11330E01F910F91FF90EF90DF90CF90BF90AF9022
S11330F09F908F907F906F905F904F903F902F9014
S11331001F900F900FBE0F9008950F920FB6F89472
S11331100F921F9211242F923F924F925F926F92BF
S11331207F928F929F92AF92BF92CF92DF92EF9253
S1133130FF920F931F932F933F934F935F936F933C
S11331407F938F939F93AF93BF93CF93DF93EF932B
S1133150FF93A0916802B09169020DB60D920EB66C
S11331600D9213BE0E94B01D81110E94B51FA09143
S11331706802B0916902CD91CDBFDD91DEBFFF91B0
S1133180EF91DF91CF91BF91AF919F918F917F91FB
S11331906F915F914F913F912F911F910F91FF90EC
S11331A0EF90DF90CF90BF90AF909F908F907F90E3
S11331B06F905F904F903F902F901F900F900FBE95
S11331C00F9008950E94851818950FB6F8940F92E1
S11331D0FC01828D811102C081E001C080E00F906A
S11331E00FBE0895FC01448D4423A9F050E02681CC
S11331F03781240F351F37832683848195812817CF
S1133200390720F08081918197838683CB01668181
S113321077810E942E2708951F93CF93DF93EC01AB
S11332200FB6F8940F921E8D0BC08989882351F034
S1133230CE0141960E94642081110E946B2111509D
S113324011169CF38FEF8E8F0F900FBE0FB6F8946C
S11332500F921D8D0BC08885882351F0CE010896EE
S11332600E94642081110E946B21115011169CF35D
S11332708FEF8D8F0F900FBEDF91CF911F91089527
S1133280CF93DF93EC01262F892B09F450C06B8D6B
S1133290662309F44EC070E08FEF9FEF0E94D125A2
S11332A08C8D90E06817790708F445C00FB6F89440
S11332B00F92E881F9818B8D4C8D90E050E0849FD2
S11332C0B001859F700D949F700D11246E0F7F1FA8
S11332D07D836C831A8EFB83EA830197489FB00138
S11332E0499F700D589F700D1124CF01860F971FB1
S11332F09F838E838FEF8D8F8E8F21110CC08885D5
S1133300882389F0CE0108960E946420882359F00E
S11333100E942C1808C0CE0108960E94EB0CCE0126
S113332041960E94EB0C0F900FBE81E005C080E037
S113333003C080E001C080E0DF91CF9108950F9336
S11333401F93F801611103C01183008302C05183EC
S11333504083838F648F61E0CF010E9440191F91E5
S11333600F910895DF92EF92FF920F931F93CF93E3
S1133370DF93382FE62F882329F1682F70E08FEF31
S11333809FEF0E94D1258E2F90E068177907E8F00F
S11333903E9FC0011124813E2FEF9207C8F4D42E22
S11333A0DE2FC32F4F960E945C087C01009791F09A
S11333B08C012D2DAC01415E5F4F6D2F8C2F0E942F
S11333C09F1908C0E12CF12C05C0E12CF12C02C09E
S11333D0E12CF12CC701DF91CF911F910F91FF9048
S11333E0EF90DF900895CF92DF92EF92FF920F93C8
S11333F01F93CF93DF9300D000D01F92CDB7DEB7D9
S11334008C016B015D834C83E12C0FB6F8940F9211
S1133410F801F28CFF20A9F0B601C8010E94F2184D
S1133420FA94F801F28E8085882339F0C801089651
S11334300E94642081110E942C180F900FBE81E01D
S113344053C08C819D81892B21F40F900FBE80E0A5
S11334504BC0E11006C0CE0101960E942121EE244A
S1133460E3940F900FBE0E94A01D0FB6F8940F9224
S1133470F801858D8F3F09F4158EF801868D8F3FF5
S113348009F4168E0F900FBEBE016C5F7F4FCE0104
S113349001960E942C2181111BC0C8010E94E518CD
S11334A0882381F06C817D81C80141960E940920A6
S11334B0C8010E940C190E94CA1E8111A6CF0E9445
S11334C02C18A3CFC8010E940C190E94CA1E9DCFBC
S11334D0C8010E940C190E94CA1EC8010E94E51866
S11334E0882309F492CF80E00F900F900F900F90F3
S11334F00F90DF91CF911F910F91FF90EF90DF908C
S1133500CF900895CF93DF93EC010FB6F8940F9208
S11335108D8D8F3F09F41D8E8E8D8F3F09F41E8E85
S11335200F900FBE8A8D811104C0CE0141960E9476
S11335301B20CE010E940C19DF91CF91089585FFC5
S113354002C081E0089580E008951F93CF93DF9334
S1133550182FEB0180ED0E949C08812F0E94EC083B
S113356081ED0E94C0080E940209809302030E9418
S1133570020989870E940D0988870E94E408DF9167
S1133580CF911F9108951F93CF93DF93182FEB01D1
S113359080ED0E949C08812F0E94EC0881ED0E941E
S11335A0C0080E940209809301030E9402098C87CB
S11335B00E9402098D870E940D098E870E94E408EB
S11335C0DF91CF911F910895CF93DF93EC01BC015C
S11335D080E00E94A51A8985288591E0811190E0F8
S11335E081E0211180E0892321F0BE0183E00E9463
S11335F0C31A888586FF0BC091E09B870E949F1A9F
S1133600882311F01A8605C081E08A8702C01B86D0
S11336101A86DF91CF910895CF93DF93EC010E9436
S11336209608BE0183E00E94C31ACE010E94E41AE8
S1133630DF91CF910895E0913002F09131028081C1
S1133640811107C08FEF9FEF9093070280930602CA
S11336500895E0913002F09131020580F681E02D69
S11336608081918190930702809306020895CF93FD
S1133670DF93EC018F89988D0E946B08CE010E9424
S11336806B08DF91CF9108954F925F926F927F9272
S11336908F929F92AF92BF92CF92DF92EF92FF925E
S11336A00F93CF93DF932C015B014A013901E601AB
S11336B065EA70E08F89988D0E9437278F89988DED
S11336C021E0821A9108880E991EA114B10489F48C
S11336D015C0822F90E0F501E80FF91F3081DE015B
S11336E0A80FB91F59963C938081882329F02F5F36
S11336F001C020E0283068F318A201C0198E0430FC
S113370008F003E00E8B09A31AA2CE0102960E94D0
S1133710F90CCE010C960E94F90CD987C88784E075
S113372090E0801B91099D878C87DB8BCA8B84E09A
S1133730FE01B396DF011D928A95E9F71FA2A3014A
S1133740B201C4010E94EC1799838883E114F10447
S113375019F0F701D183C083DF91CF910F91FF90CE
S1133760EF90DF90CF90BF90AF909F908F907F901D
S11337706F905F904F900895CF93C0E010C08C2F4E
S113378090E09C01220F331F220F331F220F331F9F
S1133790820F931F8C5B9D4F0E94EB0CCF5FC43054
S11337A070F38BE392E00E94EB0C82E392E00E94C0
S11337B0EB0C85E292E00E94EB0C8CE192E00E941B
S11337C0EB0C82E192E00E94EB0C8BE392E090938D
S11337D031028093300282E392E090932F0280932F
S11337E02E02CF910895CF93DF93EC010FB6F89496
S11337F00F92809111028F5F809311028091680271
S113380090916902892B59F4D0936902C09368029C
S113381080911102813099F40E94BC1B10C08091E8
S11338200D0281110CC0E0916802F0916902968941
S11338308E89891720F0D0936902C0936802809121
S113384008028F5F809308028E8990910E02981768
S113385010F480930E0290E0FC01EE0FFF1FEE0FB8
S1133860FF1FEE0FFF1F8E0F9F1FFC01EC5BFD4F30
S11338700180F281E02DFD83EC83848195819F8317
S11338808E83A481B581CE01029613969C938E9368
S1133890129795838483EE89F0E0CF01880F991FF6
S11338A0880F991F880F991FE80FF91FEC5BFD4FD4
S11338B0FB87EA8780818F5F80830F900FBE8091A2
S11338C00D02882351F0E0916802F0916902968913
S11338D08E89981710F40E942C18DF91CF910895C7
S11338E0CF93DF931CC00FB6F8940F92E09121029E
S11338F0F0912202C681D781CE0102960E942E0D3C
S11339008091110281508093110280911B02815099
S113391080931B020F900FBECE010E94371B809133
S11339201B028111E0CFDF91CF910895FF920F9395
S11339301F93CF93DF93EC01F62E00910F021091A9
S11339401002809168029091690202960E942E0DE5
S1133950CF3F8FEFD807B1F5FF20A1F1E2E1F2E00C
S1133960A181B281C0916802D0916902BD83AC8308
S1133970C0916802D091690214968D919C9115971B
S11339809F838E831496CD91DC9115978091680264
S11339909091690202969B838A8380916802909138
S11339A06902029615969C938E931497A0916802CF
S11339B0B09169021B96FC93EE931A9780818F5FF6
S11339C080832FC0C00FD11FE0916802F09169027B
S11339D0D383C283C017D10768F4609168027091E1
S11339E0690280912E0290912F026E5F7F4F0E9498
S11339F0FD0C17C0609168027091690280913002D9
S1133A00909131026E5F7F4F0E94FD0C80910602FF
S1133A1090910702C817D90720F4D0930702C093E6
S1133A200602DF91CF911F910F91FF9008950E949C
S1133A30701C80914402823010F00E942C180E9465
S1133A407A08F5CF2F923F924F925F926F927F92B6
S1133A508F929F92AF92BF92CF92DF92EF92FF929A
S1133A600F93CF93DF933C011B014A012901CA0143
S1133A700E945C086C01892B71F088E290E00E943E
S1133A805C08EC01892B19F0D88ECF8A06C0C601D8
S1133A900E946B0802C0C0E0D0E0209771F0A12C16
S1133AA0B12C6E019201A401B101C3010E94441B17
S1133AB0CE010E94F31B81E001C08FEFDF91CF9113
S1133AC00F91FF90EF90DF90CF90BF90AF909F90B9
S1133AD08F907F906F905F904F903F902F900895BC
S1133AE0EF92FF920F930F2EF4E0EF2EF2E0FF2EF1
S1133AF0F02D00E020E030E045E550E068EB71E0B7
S1133B0087E19DE10E94221D813011F40E9461230E
S1133B10813081F4F8948FEF9FEF909307028093A4
S1133B20060281E080930D021092100210920F029F
S1133B300E94FD17809158010F91FF90EF90089516
S1133B40809103028F5F8093030208950FB6F89467
S1133B500F9280910F02909110020F900FBE089562
S1133B600F931F93CF93DF9380910302811101C1BF
S1133B70C0910F02D09110028E010F5F1F4F10935E
S1133B80100200930F0201151105B9F4809130025F
S1133B909091310220912E0230912F023093310204
S1133BA02093300290932F0280932E028091090279
S1133BB08F5F809309020E941B1B809106029091E3
S1133BC007020817190720F480E0B8C081E001C09B
S1133BD080E0E0913002F09131029081911107C0B0
S1133BE02FEF3FEF3093070220930602A7C0E09126
S1133BF03002F09131020580F681E02D0680F781D4
S1133C00E02D228133810217130728F43093070231
S1133C102093060293C0A285B38524813581468111
S1133C205781E9015D834C83268137814481558125
S1133C30E9015B834A8311962D913C911297AF0160
S1133C404E5F5F4F2417350731F426813781129672
S1133C503C932E931197138612869C9191509C93BA
S1133C60A489B589109719F12685378560897189EA
S1133C70E9017D836C832089318966857785E90133
S1133C807B836A8311966D917C9112979F01245FC7
S1133C903F4F6217730731F42089318912963C93A0
S1133CA02E931197158A148A9C9191509C9326897E
S1133CB090910E02921710F420930E0230E0D90175
S1133CC0AA0FBB1FAA0FBB1FAA0FBB1F2A0F3B1FA4
S1133CD0D901AC5BBD4F11960D90BC91A02DB5835D
S1133CE0A48314962D913C911597378326831496BB
S1133CF02D913C911597E9015B834A8315965C935A
S1133D004E931497A689B0E09D01220F331F220F12
S1133D10331F220F331FA20FB31FAC5BBD4FB387FA
S1133D20A2879C919F5F9C932689E0916802F09101
S1133D3069029689291708F049CF4BCFE0916802B0
S1133D40F0916902268930E0F901EE0FFF1FEE0FB2
S1133D50FF1FEE0FFF1F2E0F3F1FF901EC5BFD4FFE
S1133D609081923008F081E090910A0291110CC088
S1133D700CC080910B0290910C02019690930C025E
S1133D8080930B0280E001C081E0DF91CF911F910D
S1133D900F910895CF93DF930FB6F8940F9280910B
S1133DA00302815080930302809103028111BFC0FA
S1133DB080911102811196C0BDC0E0912A02F09158
S1133DC02B020680F781E02DA489B589C685D785A5
S1133DD0808991899D838C83C089D18986859785C3
S1133DE09B838A8311962D913C911297CF010C9657
S1133DF02817390731F48089918912969C938E9300
S1133E001197158A148A8C9181508C93A285B3855D
S1133E10C481D581868197819D838C83C681D78116
S1133E20848195819B838A8311968D919C911297AD
S1133E309F012E5F3F4F8217930731F4868197814C
S1133E4012969C938E931197138612868C918150AF
S1133E508C93868990910E02981710F480930E0229
S1133E6090E0DC01AA0FBB1FAA0FBB1FAA0FBB1F48
S1133E708A0F9B1FDC01AC5BBD4F11960D90BC916A
S1133E80A02DB583A48314968D919C911597978347
S1133E9086831496CD91DC9115973B832A831596DE
S1133EA03C932E931497A689B0E0CD01880F991FF7
S1133EB0880F991F880F991FA80FB91FAC5BBD4FBE
S1133EC0B387A2878C918F5F8C939689A0916802A7
S1133ED0B091690256968C91981730F081E08093E6
S1133EE00A0202C0E0E0F0E080912502811165CF72
S1133EF0EF2B11F00E941B1BC0910B02D0910C02FE
S1133F00209769F00E94B01D882319F081E0809306
S1133F100A022197B9F710920C0210920B028091B9
S1133F200A02882331F00E942C1881E003C080E04B
S1133F3001C080E00F900FBEDF91CF910895CF9321
S1133F40DF93EC01892B49F00E94A01D60E0CE01B3
S1133F500E94961C0E94CA1E01C080E0811102C00A
S1133F600E942C18DF91CF91089580910302882339
S1133F7021F081E080930A02089510920A022091B0
S1133F800E0201C02150822F90E0FC01EE0FFF1FB2
S1133F90EE0FFF1FEE0FFF1FE80FF91FEC5BFD4F45
S1133FA03081332379F3AC01440F551F440F551F5F
S1133FB0440F551F480F591FDF010180F281E02D86
S1133FC00280F381E02D1296FC93EE931197495BE6
S1133FD05D4FE417F50729F442815381FD015283B3
S1133FE04183FC01EE0FFF1FEE0FFF1FEE0FFF1FBB
S1133FF08E0F9F1FFC01EC5BFD4F0180F281E02DD1
S113400086819781909369028093680220930E02BF
S11340100895CF93DF93EB01609168027091690278
S1134020645F7F4F0E94FD0C61E0CE010E94961CEC
S1134030DF91CF9108950F931F93CF93DF93FC01EA
S11340408B01A181B2818091680290916902EC0197
S1134050BF87AE87809168029091690214962D9172
S11340603C911597EC01398B288B14968D919C917A
S113407015972091680230916902245F3F4FEC014B
S11340803B832A832091680230916902245F3F4F69
S113409015963C932E931497A0916802B0916902EF
S11340A05596FC93EE93549790819F5F908344239D
S11340B011F00FEF1FEF642FC8010E94961CDF91CF
S11340C0CF911F910F910895CF93DF93DC01159643
S11340D0ED91FC9116970680F781E02DA489B589AE
S11340E0C685D785808991899D838C83C089D18930
S11340F0868597859B838A8311968D919C911297CF
S11341009F01245F3F4F8217930731F4808991897F
S113411012969C938E931197158A148A8C918150D0
S11341208C9380910302811160C0A285B385C48100
S1134130D581868197819D838C83C681D781848133
S113414095819B838A8311968D919C9112979F01EF
S11341502E5F3F4F8217930731F486819781129621
S11341609C938E931197138612868C9181508C9315
S1134170868990910E02981710F480930E0290E0B5
S1134180DC01AA0FBB1FAA0FBB1FAA0FBB1F8A0FFC
S11341909B1FDC01AC5BBD4F11960D90BC91A02D13
S11341A0B583A48314968D919C91159797838683E8
S11341B01496CD91DC9115973B832A8315963C93F5
S11341C02E931497A689B0E0CD01880F991F880F0C
S11341D0991F880F991FA80FB91FAC5BBD4FB387F8
S11341E0A2878C918F5F8C931CC045E252E0DA0168
S11341F01196CD91DC911297D787C6878C819D81CA
S1134200918B808B8C819D81DC0113963C932E9342
S113421012973D832C83558B448BDA018C918F5FED
S11342208C939689E0916802F091690286898917D6
S113423020F481E080930A0201C080E0DF91CF91F5
S1134240089520910902FC01208320910F023091EE
S113425010023283218308951F93CF93DF930FB607
S1134260F8940F92E0910F02F0911002DC01119684
S11342704D915C911297DF01A41BB50BEB012881D2
S113428039812F3FDFEF3D07F9F0EC011881C09130
S113429009021C1741F0E417F50728F0FB0111820D
S11342A0108281E012C0A217B30748F4FB012A1B55
S11342B03B0B318320830E94212180E006C0DB0177
S11342C01D921C9281E001C080E00F900FBEDF912F
S11342D0CF911F91089581E080930A020895DC0133
S11342E0E0917202F0917302808191E0811190E07B
S11342F09C93911106C00580F681E02D8081918107
S1134300089580E090E00895FC01738362839187AF
S113431080874617570790F0421B530B8485958579
S113432048175907E0F4BF016E5F7F4F8091700218
S1134330909171020E94FD0C80E00895421753078A
S113434018F46217730768F4BF016E5F7F4F8091A2
S11343507202909173020E94FD0C80E0089581E046
S1134360089581E00895EF92FF920F931F93CF93E6
S1134370DF93EC018B017A0108C08C859D85080FC1
S1134380191FE889F989CE0109956C857D85600F2F
S1134390711F9801A701CE010E9484218111EDCFE4
S11343A0DF91CF911F910F91FF90EF900895EF92BD
S11343B0FF920F931F93CF93DF938C017B01E091C6
S11343C07202F09173020580F681E02DC681D781D7
S11343D0CE0102960E942E0D8A8982FF06C0A70193
S11343E0B801CE010E94B32102C08E7F8A8BE88976
S11343F0F989CE010995DF91CF911F910F91FF901B
S1134400EF90089509C00580F681E02D6FEF7FEFEE
S1134410808191810E94D721E0917202F091730210
S113442080818111F0CF80917002909171029093FC
S1134430730280937202F0937102E0937002089504
S11344400F931F93CF93DF938C010E94A61DEC0161
S113445080916A0290916B02C817D90730F40E94C8
S1134460022281E0F801808302C0F8011082D09317
S11344706B02C0936A02CE01DF91CF911F910F911D
S11344800895CF92DF92EF92FF921F93CF93DF9321
S11344901F92CDB7DEB77C01162F0E94A01DCE015E
S11344A001960E9420226C018981811127C011117B
S11344B00AC0CE14DF0438F00E94CA1EB601C70138
S11344C00E94D7211DC0112341F0E0917002F091A8
S11344D07102808111E0811110E0B7016C197D092E
S11344E0412F80916E0290916F020E94821A0E9465
S11344F0CA1E811105C00E942C1802C00E94CA1E47
S11345000F90DF91CF911F91FF90EF90DF90CF90AC
S11345100895EF92FF920F931F93CF93DF9300D0F0
S113452000D000D0CDB7DEB77AC0898188230CF4DF
S113453076C00C811D81D8011A968D919C911B9790
S1134540892B21F0C80102960E942E0DCE010696F9
S11345500E9420227C01E9818E2FEE0F990BAA0B79
S1134560BB0BFC013197E930F10508F058C0E65B5C
S1134570FF4F0C940726F80182898160828B2A817F
S11345803B8164857585620F731FA701C8010E9472
S11345908421882309F443C0D80152968C91529700
S11345A082FF0DC06A817B811C968D919C911D9721
S11345B0680F791FA701C8010E94B32103C08E7F31
S11345C0F801828BD8015096ED91FC915197C80166
S11345D0099525C0F80182898E7F828B20C0D8017D
S11345E052968C915297816052968C9352976A811D
S11345F07B811D967C936E931C976E0D7F1D970196
S1134600A701C8010E9484210AC0F801828981FDA2
S113461004C0C8010E946B0802C08E7F828B40E0F8
S113462050E0BE016F5F7F4F80916E0290916F02E8
S11346300E94F319811179CF26960FB6F894DEBF44
S11346400FBECDBFDF91CF911F910F91FF90EF90DF
S11346500895CF93DF931F92CDB7DEB7CE010196B5
S11346600E946F2169810E9441220E948922F6CF13
S11346700FB6F8940F9280916E0290916F02892B7D
S1134680E9F48DE792E00E94EB0C84E792E00E944B
S1134690EB0C8DE792E0909373028093720284E7AF
S11346A092E0909371028093700240E065E08AE0AA
S11346B00E94B21990936F0280936E020F900FBE06
S11346C00895EF92FF920F930E94382380916E0217
S11346D090916F02892B91F00F2EFCE6EF2EF2E001
S11346E0FF2EF02D03E020E030E045E550E06DEBD7
S11346F071E089E293E20E94221D01C080E00F91E3
S1134700FF90EF9008958AB180618AB98BB180617E
S11347108BB908959BB19F7E9BB9E0EDF0E0319792
S1134720F1F791E00FC0292F282321F02BB120614C
S11347302BB903C02BB12F7E2BB9E0EDF0E03197FC
S1134740F1F7990F9111EFCF8BB180618BB980EDA7
S113475090E00197F1F70895E1ECF0E02081286101
S11347602083E2ECF0E0208126602083DC01CB0191
S1134770880F991FAA1FBB1F880F991FAA1FBB1F51
S11347809C01AD01220F331F441F551F220F331FFD
S1134790441F551F60E072E18AE790E00E94E5251E
S11347A08FEF820F8093C400DA01C9010197A10938
S11347B0B109892F9A2FAB2FBB278093C500089589
S11347C0FC019091C0009923E4F78091C600808396
S11347D081E008959091C00095FFFCCF8093C600BE
S11347E00895EF92FF920F931F93CF93DF937C0171
S11347F08B01C0E0D0E006C0C7018C0F9D1F0E9452
S1134800E0232196C017D107B8F381E0DF91CF915F
S11348101F910F91FF90EF900895EF92FF920F93E5
S11348201F93CF93DF937C018B01C0E0D0E007C0DE
S1134830F701EC0FFD1F80810E94EA232196C01727
S1134840D107B0F3DF91CF911F910F91FF90EF90BB
S113485008955058BB27AA270E9441240C948B2505
S11348600E947D2538F00E94842520F039F49F3F72
S113487019F426F40C947A250EF4E095E7FB0C94D5
S11348807425E92F0E949C2558F3BA176207730711
S11348908407950720F079F4A6F50C94BE250EF450
S11348A0E0950B2EBA2FA02D0B01B90190010C013C
S11348B0CA01A0011124FF27591B99F0593F50F454
S11348C0503E68F11A16F040A22F232F342F4427AC
S11348D0585FF3CF469537952795A795F0405395A4
S11348E0C9F77EF41F16BA0B620B730B840BBAF074
S11348F09150A1F0FF0FBB1F661F771F881FC2F7DF
S11349000EC0BA0F621F731F841F48F487957795F2
S11349106795B795F7959E3F08F0B0CF9395880FAC
S113492008F09927EE0F9795879508950E94AA2479
S11349300C948B250E94842558F00E947D2540F01C
S113494029F45F3F29F00C94742551110C94BF2570
S11349500C947A250E949C2568F39923B1F355237E
S113496091F3951B550BBB27AA276217730784077E
S113497038F09F5F5F4F220F331F441FAA1FA9F314
S113498035D00E2E3AF0E0E832D091505040E69502
S1134990001CCAF72BD0FE2F29D0660F771F881F63
S11349A0BB1F261737074807AB07B0E809F0BB0B56
S11349B0802DBF01FF2793585F4F3AF09E3F51056A
S11349C078F00C9474250C94BF255F3FE4F3983E73
S11349D0D4F3869577956795B795F7959F5FC9F753
S11349E0880F911D9695879597F90895E1E0660FD4
S11349F0771F881FBB1F621773078407BA0720F04D
S1134A00621B730B840BBA0BEE1F88F7E0950895B5
S1134A100E94A42588F09F5798F0B92F9927B75181
S1134A20B0F0E1F0660F771F881F991F1AF0BA954E
S1134A30C9F714C0B13091F00E94BE25B1E00895C9
S1134A400C94BE25672F782F8827B85F39F0B93FBB
S1134A50CCF3869577956795B395D9F73EF4909501
S1134A608095709561957F4F8F4F9F4F0895E8947F
S1134A7009C097FB3EF490958095709561957F4FA2
S1134A808F4F9F4F9923A9F0F92F96E9BB27939550
S1134A90F695879577956795B795F111F8CFFAF460
S1134AA0BB0F11F460FF1BC06F5F7F4F8F4F9F4F91
S1134AB016C0882311F096E911C0772321F09EE8EF
S1134AC0872F762F05C0662371F096E8862F70E055
S1134AD060E02AF09A95660F771F881FDAF7880F2F
S1134AE09695879597F9089597F99F6780E870E000
S1134AF060E008959FEF80EC089500240A94161650
S1134B00170618060906089500240A9412161306B7
S1134B10140605060895092E0394000C11F4882345
S1134B2052F0BB0F40F4BF2B11F460FF04C06F5F61
S1134B307F4F8F4F9F4F089557FD9058440F551F37
S1134B4059F05F3F71F04795880F97FB991F61F00B
S1134B509F3F79F087950895121613061406551F82
S1134B60F2CF4695F1DF08C0161617061806991FEE
S1134B70F1CF86957105610508940895E894BB27E3
S1134B8066277727CB0197F90895991B79E004C02C
S1134B90991F961708F0961B881F7A95C9F7809578
S1134BA00895AA1BBB1B51E107C0AA1FBB1FA61770
S1134BB0B70710F0A61BB70B881F991F5A95A9F7C2
S1134BC080959095BC01CD010895A1E21A2EAA1BEF
S1134BD0BB1BFD010DC0AA1FBB1FEE1FFF1FA217A9
S1134BE0B307E407F50720F0A21BB30BE40BF50BA6
S1134BF0661F771F881F991F1A9469F7609570952F
S1134C00809590959B01AC01BD01CF010895EE0FF5
S1134C10FF1F0590F491E02D09940F931F93CF93F8
S1134C20DF938230910510F482E090E0E091050377
S1134C30F091060320E030E0A0E0B0E0309719F1F5
S1134C40408151810281138148175907C8F08417A4
S1134C50950769F4109731F012960C9312971396F6
S1134C601C9327C0009305031093060322C021154B
S1134C70310519F04217530718F49A01BD01EF01E9
S1134C80DF01F801DBCF21153105F9F0281B390BC1
S1134C902430310580F48A819B816115710521F0EE
S1134CA0FB019383828304C09093060380930503DE
S1134CB0FE01329644C0FE01E20FF31F81939193EB
S1134CC022503109398328833AC02091030330915B
S1134CD00403232B41F4209102013091030130930A
S1134CE00403209303032091000130910101211555
S1134CF0310541F42DB73EB74091040150910501AF
S1134D00241B350BE0910303F0910403E217F3072E
S1134D10A0F42E1B3F0B2817390778F0AC014E5F27
S1134D205F4F2417350748F04E0F5F1F509304035D
S1134D30409303038193919302C0E0E0F0E0CF013C
S1134D40DF91CF911F910F910895CF93DF93009737
S1134D5009F481C0FC01329713821282A0910503E9
S1134D60B0910603109781F420813181820F931F43
S1134D7020910303309104032817390751F5F09368
S1134D800403E093030367C0ED0120E030E0CE1795
S1134D90DF0740F44A815B819E0141155105F1F022
S1134DA0EA01F5CFD383C28340815181840F951FDB
S1134DB0C817D90759F488819981840F951F0296E1
S1134DC0918380838A819B8193838283211531051A
S1134DD029F4F0930603E09305033DC0E901FB8346
S1134DE0EA8349915991C40FD51FEC17FD0761F46B
S1134DF080819181840F951F0296E90199838883AC
S1134E00828193819B838A83E0E0F0E012968D9106
S1134E109C911397009719F0FD01DC01F7CF8D9158
S1134E209C9111979D012E5F3F4F820F931F2091FC
S1134E300303309104032817390769F4309729F4E0
S1134E40109206031092050302C013821282B093DB
S1134E500403A0930303DF91CF910895FB01DC01C8
S1134E6002C001900D9241505040D8F70895DC01E2
S1134E7001C06D9341505040E0F70895AEE0B0E0BA
S1134E80E4E4F7E20C94FF290D891E8986E08C8303
S1134E901A8309838FEF9FE79E838D83AE01475E5C
S1134EA05F4F6F89788DCE0101960E946027EF8154
S1134EB0F885E00FF11F10822E96E4E00C941B2A73
S1134EC0ABE0B0E0E6E6F7E20C94F1296C017B017B
S1134ED08A01FC0117821682838181FFCCC1CE0135
S1134EE001963C01F6019381F70193FD859193FFAF
S1134EF081917F01882309F4BAC1853239F493FD85
S1134F00859193FF81917F01853229F4B60190E068
S1134F100E945729E7CF912C212C312CFFE1F31566
S1134F20D8F08B3279F038F4803279F08332A1F4FE
S1134F30232D20611DC08D3261F0803369F4232D4F
S1134F40216016C0832D8260382EE32DE4603E2E4E
S1134F502AC0F32DF8601DC037FC2DC020ED280FAA
S1134F602A3040F08E32B9F436FC81C1232D2064FE
S1134F70322E19C036FE06C08AE0989E200D1124F8
S1134F80922E11C0EAE02E9E200D1124222EF32D24
S1134F90F0623F2E08C08C3621F4832D8068382EB1
S1134FA002C0883641F4F70193FD859193FF819106
S1134FB07F018111B3CF982F9F7D9554933028F4AE
S1134FC00C5F1F4F9FE399830DC0833631F0833705
S1134FD071F0833509F059C021C0F80180818983BB
S1134FE00E5F1F4F88248394912C530113C0280112
S1134FF0F2E04F0E511CF801A080B18036FE03C0D0
S1135000692D70E002C06FEF7FEFC5010E944C294B
S11350104C018201F32DFF773F2E16C0280122E0B8
S1135020420E511CF801A080B18036FE03C0692DE8
S113503070E002C06FEF7FEFC5010E9441294C016F
S1135040F32DF0683F2E820133FC1BC0822D90E0CB
S113505088169906B0F4B60180E290E00E945729C0
S11350602A94F4CFF50137FC859137FE81915F01D5
S1135070B60190E00E94572921102A9421E0821A57
S113508091088114910471F7E8C0843611F08936CF
S113509041F5F80137FE07C06081718182819381F7
S11350A00C5F1F4F08C060817181072E000C880BB4
S11350B0990B0E5F1F4FF32DFF763F2E97FF09C00C
S11350C090958095709561957F4F8F4F9F4FF068B5
S11350D03F2E2AE030E0A3010E949329882E8618EF
S11350E045C0853731F4232D2F7EB22E2AE030E0DF
S11350F025C0932D997FB92E8F36C1F018F48835C9
S113510079F0B5C0803719F0883721F0B0C0E92FA5
S1135110E061BE2EB4FE0DC0FB2DF460BF2E09C0AD
S113512034FE0AC0292F2660B22E06C028E030E0E3
S113513005C020E130E002C020E132E0F801B7FE12
S113514007C060817181828193810C5F1F4F06C00B
S11351506081718180E090E00E5F1F4FA3010E9487
S11351609329882E8618FB2DFF773F2E36FE0DC01F
S1135170232D2E7FA22E891458F434FE0BC032FC4A
S113518009C0832D8E7EA82E05C0B82CA32C03C085
S1135190B82C01C0B92CA4FE0FC0FE01E80DF11D0E
S11351A08081803321F49A2D997EA92E09C0A2FE14
S11351B006C0B394B39404C08A2D867809F0B394DE
S11351C0A3FC11C0A0FE06C0B21488F4280C922CD3
S11351D09B180EC0B21460F4B60180E290E00E9405
S11351E05729B394F7CFB21418F42B1802C0982C93
S11351F0212CA4FE10C0B60180E390E00E94572940
S1135200A2FE17C0A1FC03C088E790E002C088E5B5
S113521090E0B6010CC08A2D867859F0A1FE02C038
S11352208BE201C080E2A7FC8DE2B60190E00E940F
S11352305729891438F4B60180E390E00E94572975
S11352409A94F7CF8A94F301E80DF11D8081B60199
S113525090E00E9457298110F5CF222009F442CE14
S1135260B60180E290E00E9457292A94F6CFF60115
S11352708681978102C08FEF9FEF2B96E2E10C9419
S11352800D2AFC010590615070400110D8F78095FB
S113529090958E0F9F1F0895FC01615070400190FE
S11352A00110D8F7809590958E0F9F1F08950F9346
S11352B01F93CF93DF93FB01238121FD03C08FEF65
S11352C09FEF2CC022FF16C046815781248135816F
S11352D04217530744F4A081B1819D012F5F3F4FD2
S11352E0318320838C93268137812F5F3F4F37830F
S11352F0268314C08B01EC01FB010084F185E02DB1
S11353000995892BE1F6D80116968D919C911797F2
S1135310019617969C938E931697CE01DF91CF91A9
S11353201F910F910895FA01AA27283051F12031D5
S113533081F1E8946F936E7F6E5F7F4F8F4F9F4F25
S1135340AF4FB1E03ED0B4E03CD0670F781F891F67
S11353509A1FA11D680F791F8A1F911DA11D6A0F35
S1135360711D811D911DA11D20D009F468943F91E8
S11353702AE0269F11243019305D3193DEF6CF01E7
S11353800895462F4770405D4193B3E00FD0C9F7AD
S1135390F6CF462F4F70405D4A3318F0495D31FD1A
S11353A04052419302D0A9F7EACFB4E0A69597956D
S11353B0879577956795BA95C9F700976105710543
S11353C008959B01AC010A2E06945795479537958D
S11353D02795BA95C9F7620F731F841F951FA01DE7
S11353E008952F923F924F925F926F927F928F9285
S11353F09F92AF92BF92CF92DF92EF92FF920F9360
S11354001F93CF93DF93CDB7DEB7CA1BDB0B0FB669
S1135410F894DEBF0FBECDBF09942A883988488826
S11354205F846E847D848C849B84AA84B984C884BC
S1135430DF80EE80FD800C811B81AA81B981CE0FB3
S1135440D11D0FB6F894DEBF0FBECDBFED01089598
S1075450F894FFCFFA
S113545400000703200002202020202020202020F8
S11354642020202020202020202020202020202034
S113547420202020202020202020200000000000C4
S113548400000000000048483A4D4D20504D2020B3
S11354942020202020200048483A4D4D504D2044DF
S11354A4442F4D4D2F414100032A2A2A2A2A2A2A0D
S11354B42A2A2A2A2A2A2A2A2A2A00706C61796525
S11354C47200626F746F6E006C63640072746300C4
S11354D4697200253032783A25303278202020252C
S11354E43032782F253032782F2530327800253029
S11354F432783A25303278202020202020202020A1
S1135504202000253032750049444C4500546D7206
S109551420537663000041
S9030000FC
